:0400000071EF01F0AB
:1000080000C018F001C017F00CC016F00DC015F0B4
:10001800222A2250020A04E02250020801E306D0F4
:10002800192A1950640AD8B4196A226A19C029F021
:10003800230E2A6E000E2B6E17D91950000A09E1FB
:10004800010E296E010E2A6E1A0E2B6E000E2C6EF2
:100058007BD8010E296E090E2A6E230E2B6E000E18
:100068002C6E72D881CF28F0F29018C000F017C01B
:0C00780001F016C00CF015C00DF01100D6
:0600840000000000120064
:10008A000F0E0C6E470E0D6E0D2EFED70C2EFCD7E2
:06009A000000000012004E
:0A00A000210E0D6E0D2EFED712008A
:1000AA0030BE02D0839E01D0838E30BC02D0839CA6
:1000BA0001D0838C30BA02D0839A01D0838A30B8B7
:1000CA0002D0839801D0838827B002D0838401D0DC
:1000DA0083948386D2DF839630B602D0839E01D082
:1000EA00838E30B402D0839C01D0838C30B202D08C
:1000FA00839A01D0838A30B002D0839801D0838852
:10010A0027B002D0838401D083948386B6DF839696
:0C011A0027A002D0B5DF01D0BEDF12002C
:10012600086A080E0C6E003408360450085ED8B013
:0E01360002D00826D89000360C2EF5D7120005
:0C01440027902FC030F0AFDF27801200A2
:100150000FD0800E296E19D0C00E296E16D0940EC5
:10016000296E13D0D40E296E10D0800E296E0DD0BA
:100170002950010AEEE02950020AEEE02950030A54
:10018000EEE02950040AEEE0F0D72A04006E295070
:10019000002600C029F000C030F087DF27902D6ACC
:1001A0002D502B24E96E000E2C20EA6EEE520BE04F
:1001B0002D502B24E96E000E2C20EA6EEECF2FF08E
:0A01C000C1DF2D2AEDD727801200C1
:1001CA000900F5CFE6FF0006FBE10106F9E112009E
:1001DA00959695949598959A959C959E83968394D1
:1001EA00839E839C839A83984BDF4ADF49DF838A05
:1001FA008388838642DF839643DF83863EDF839646
:10020A003FDF83863ADF83963BDF8398838635DF39
:10021A00839636DF838631DF8396839A838E83863D
:10022A002CDF83962DDF839E8388838626DF839641
:10023A008398838622DF839623DF83861EDF839655
:10024A00838883861ADF83961BDF8398838615DF6C
:10025A008396838E838C838A838883860EDF839634
:06026A000FDF27801200E7
:100270002C6A030E2C5C0AE22C502A24E16E000E3C
:100280002B20E26E200EE66E2C2AF3D72C502A2467
:10029000E16E000E2B20E26EE66A2C062C502A241A
:1002A0002D6E000E2B202E6E0A0E046E29C000F05B
:1002B0003ADF08C000F0300E00262DC0E1FF2EC04E
:1002C000E2FF00C0E6FF0A0E046E29C000F02BDF3B
:1002D00000C029F00050000A01E102D02C06DED750
:0202E00012000A
:1002E200196A540E1A6E750E1B6E720E1C6E6E0E0D
:1002F2001D6E6F0E1E6E3A0E1F6E200E206E216A4C
:10030200226AF00E936E816A67DFF19E81CF28F038
:0A031200F280F286F28EFFD7FFD7CB
:020000040030CA
:0D000100220F0EFF0181FF0FC00FE00F4026
:00000001FF
