:0400000061EF01F0BB
:1000080000C018F001C017F00CC016F00DC015F0B4
:100018001A2A1A50020A06E1192A1950640AD8B491
:10002800196A1A6A19C021F01B0E226E000E236E7F
:100038000BD9010E216E010E226E1B0E236E000ECF
:10004800246E72D881CF20F0F29018C000F017C04B
:0C00580001F016C00CF015C00DF01100F6
:0600640000000000120084
:10006A000F0E0C6E470E0D6E0D2EFED70C2EFCD702
:06007A000000000012006E
:0A008000210E0D6E0D2EFED71200AA
:10008A0028BE02D0839E01D0838E28BC02D0839CD6
:10009A0001D0838C28BA02D0839A01D0838A28B8E7
:1000AA0002D0839801D083881FB002D0838401D004
:1000BA0083948386D2DF839628B602D0839E01D0AA
:1000CA00838E28B402D0839C01D0838C28B202D0BC
:1000DA00839A01D0838A28B002D0839801D083887A
:1000EA001FB002D0838401D083948386B6DF8396BF
:0C00FA001FA002D0B5DF01D0BEDF120055
:10010600086A080E0C6E003408360450085ED8B033
:0E01160002D00826D89000360C2EF5D7120025
:0C0124001F9027C028F0AFDF1F801200E2
:100130000FD0800E216E19D0C00E216E16D0940EF5
:10014000216E13D0D40E216E10D0800E216E0DD0F2
:100150002150010AEEE02150020AEEE02150030A8C
:10016000EEE02150040AEEE0F0D72204006E2150A8
:10017000002600C021F000C028F087DF1F90256A0C
:1001800025502324E96E000E2420EA6EEE520BE087
:1001900025502324E96E000E2420EA6EEECF27F0CE
:0A01A000C1DF252AEDD71F801200F1
:1001AA000900F5CFE6FF0006FBE10106F9E11200BE
:1001BA00959695949598959A959C959E83968394F1
:1001CA00839E839C839A83984BDF4ADF49DF838A25
:1001DA008388838642DF839643DF83863EDF839666
:1001EA003FDF83863ADF83963BDF8398838635DF5A
:1001FA00839636DF838631DF8396839A838E83865E
:10020A002CDF83962DDF839E8388838626DF839661
:10021A008398838622DF839623DF83861EDF839675
:10022A00838883861ADF83961BDF8398838615DF8C
:10023A008396838E838C838A838883860EDF839654
:06024A000FDF1F8012000F
:10025000246A030E245C0AE224502224E16E000E7C
:100260002320E26E200EE66E242AF3D724502224A7
:10027000E16E000E2320E26EE66A2406245022245A
:10028000256E000E2320266E0A0E046E21C000F09B
:100290003ADF08C000F0300E002625C0E1FF26C07E
:1002A000E2FF00C0E6FF0A0E046E21C000F02BDF63
:1002B00000C021F00050000A01E102D02406DED780
:0202C00012002A
:1002C200196A1A6AF00E936E816A76DFF19E81CF07
:0C02D20020F0F290F286F28EFFD7FFD7EA
:020000040030CA
:0D000100220F0EFF0181FF0FC00FE00F4026
:00000001FF
