:100000000EEF00F00000000000EF00F00000000024
:0A0010000000000000000000F3D71C
:10001C00810E166E420E176E240E186E180E196E87
:10002C00240E1A6E420E1B6E070EC16E946A826A03
:10003C00156A156A1550050825E3160EE96E000EB3
:10004C00EA6E1550E926D8B0EA2AEECF82FF050EEB
:10005C000B6E0F0E0C6EF10E0D6E0D2EFED70C2EC0
:10006C00FCD70B2EFAD7826A030E0B6E080E0C6EA1
:10007C00770E0D6E0D2EFED70C2EFCD70B2EFAD74D
:08008C00152AD8D7D5D7FFD7FC
:020000040030CA
:0D000100220F0EFF0181FF0FC00FE00F4026
:00000001FF
