:0400000010EF00F00D
:10000800152A15500A0A02E1156A162A16500A0A14
:08001800D8B4166AF29211003F
:100020003F0E176E060E186E5B0E196E4F0E1A6E8F
:10003000660E1B6E6D0E1C6E7D0E1D6E070E1E6E07
:100040007F0E1F6E6F0E206E156A166AF19E9380EA
:10005000926A956A010E806E836AF19CF292F28830
:10006000F28E170EE96E000EEA6E1550E926D8B032
:10007000EA2AEECF83FF8090340E0C6EF10E0D6EE7
:100080000D2EFED70C2EFCD7000000008080170E2E
:10009000E96E000EEA6E1650E926D8B0EA2AEECFD5
:1000A00083FF8092340E0C6EF10E0D6E0D2EFED776
:0E00B0000C2EFCD7000000008082D3D7FFD7B3
:020000040030CA
:0D000100220F0EFF0181FF0FC00FE00F4026
:00000001FF
