:1000000016EF00F00000000000EF00F0000000001C
:0A0010000000000000000000F3D71C
:10001C000900F5CFE6FF0006FBE10106F9E112004D
:10002C00010E156E070EC16E946A826A15C082FFAE
:10003C00030E0B6E080E0C6E770E0D6E0D2EFED78A
:10004C000C2EFCD70B2EFAD7826A020E0B6E040E06
:10005C000C6EBA0E0D6E0D2EFED70C2EFCD70B2E81
:10006C00FAD7000015C001F00136019001C015F05F
:0E007C000150000A02E1010E156ED8D7FFD721
:020000040030CA
:0D000100220F0EFF0181FF0FC00FE00F4026
:00000001FF
