:100000000EEF00F00000000000EF00F00000000024
:0A0010000000000000000000F3D71C
:10001C003F0E156E060E166E5B0E176E4F0E186E9B
:10002C00660E196E6D0E1A6E7D0E1B6E070E1C6E13
:10003C007F0E1D6E6F0E1E6E1F6A206A216A070EE0
:10004C00C16E956A836A926A030E806E206A205094
:10005C0019082EE3150EE96E000EEA6E1F50E92604
:10006C00D8B0EA2AEECF83FF8090340E0C6EF10EDE
:10007C000D6E0D2EFED70C2EFCD7000000008080DC
:10008C00150EE96E000EEA6E2150E926D8B0EA2A68
:10009C00EECF83FF8092340E0C6EF10E0D6E0D2E92
:1000AC00FED70C2EFCD7000000008082202ACFD770
:1000BC001F2A1F500A0A02E1212A1F6A2150060A30
:0800CC00D8B4216AC3D7FFD7A5
:020000040030CA
:0D000100220F0EFF0181FF0FC00FE00F4026
:00000001FF
